{
  "_format": "hh-sol-artifact-1",
  "contractName": "SafeFaucetModule",
  "sourceName": "contracts/executor/SafeFaucetModule.sol",
  "abi": [
    {
      "inputs": [
        {
          "internalType": "address",
          "name": "smartAccount",
          "type": "address"
        }
      ],
      "name": "AlreadyInitialized",
      "type": "error"
    },
    {
      "inputs": [],
      "name": "ExecutionFailed",
      "type": "error"
    },
    {
      "inputs": [],
      "name": "InvalidRecipient",
      "type": "error"
    },
    {
      "inputs": [
        {
          "internalType": "address",
          "name": "smartAccount",
          "type": "address"
        }
      ],
      "name": "NotInitialized",
      "type": "error"
    },
    {
      "anonymous": false,
      "inputs": [
        {
          "indexed": true,
          "internalType": "address",
          "name": "sessionKey",
          "type": "address"
        },
        {
          "indexed": true,
          "internalType": "address",
          "name": "account",
          "type": "address"
        }
      ],
      "name": "SessionKeyAdded",
      "type": "event"
    },
    {
      "inputs": [
        {
          "components": [
            {
              "internalType": "address",
              "name": "token",
              "type": "address"
            },
            {
              "internalType": "address",
              "name": "account",
              "type": "address"
            },
            {
              "internalType": "uint48",
              "name": "validAfter",
              "type": "uint48"
            },
            {
              "internalType": "uint48",
              "name": "validUntil",
              "type": "uint48"
            },
            {
              "internalType": "uint256",
              "name": "limitAmount",
              "type": "uint256"
            },
            {
              "internalType": "uint48",
              "name": "refreshInterval",
              "type": "uint48"
            },
            {
              "components": [
                {
                  "internalType": "address[]",
                  "name": "singletons",
                  "type": "address[]"
                },
                {
                  "internalType": "string[]",
                  "name": "versions",
                  "type": "string[]"
                },
                {
                  "internalType": "bool",
                  "name": "supported",
                  "type": "bool"
                }
              ],
              "internalType": "struct SafeFaucetModule.AccountSupport",
              "name": "safe",
              "type": "tuple"
            },
            {
              "components": [
                {
                  "internalType": "address[]",
                  "name": "singletons",
                  "type": "address[]"
                },
                {
                  "internalType": "string[]",
                  "name": "versions",
                  "type": "string[]"
                },
                {
                  "internalType": "bool",
                  "name": "supported",
                  "type": "bool"
                }
              ],
              "internalType": "struct SafeFaucetModule.AccountSupport",
              "name": "cbSW",
              "type": "tuple"
            },
            {
              "components": [
                {
                  "internalType": "address[]",
                  "name": "singletons",
                  "type": "address[]"
                },
                {
                  "internalType": "string[]",
                  "name": "versions",
                  "type": "string[]"
                },
                {
                  "internalType": "bool",
                  "name": "supported",
                  "type": "bool"
                }
              ],
              "internalType": "struct SafeFaucetModule.AccountSupport",
              "name": "eoa",
              "type": "tuple"
            }
          ],
          "internalType": "struct SafeFaucetModule.FaucetData",
          "name": "faucetData",
          "type": "tuple"
        }
      ],
      "name": "addFaucet",
      "outputs": [
        {
          "internalType": "uint256",
          "name": "",
          "type": "uint256"
        }
      ],
      "stateMutability": "nonpayable",
      "type": "function"
    },
    {
      "inputs": [
        {
          "internalType": "uint256",
          "name": "faucetId",
          "type": "uint256"
        },
        {
          "internalType": "address",
          "name": "to",
          "type": "address"
        },
        {
          "internalType": "uint256",
          "name": "value",
          "type": "uint256"
        },
        {
          "internalType": "bytes",
          "name": "data",
          "type": "bytes"
        }
      ],
      "name": "execute",
      "outputs": [
        {
          "internalType": "bytes",
          "name": "",
          "type": "bytes"
        }
      ],
      "stateMutability": "nonpayable",
      "type": "function"
    },
    {
      "inputs": [
        {
          "internalType": "address",
          "name": "",
          "type": "address"
        },
        {
          "internalType": "uint256",
          "name": "",
          "type": "uint256"
        }
      ],
      "name": "faucetUsers",
      "outputs": [
        {
          "internalType": "uint256",
          "name": "faucetId",
          "type": "uint256"
        },
        {
          "internalType": "uint256",
          "name": "limitUsed",
          "type": "uint256"
        },
        {
          "internalType": "uint48",
          "name": "lastUsed",
          "type": "uint48"
        }
      ],
      "stateMutability": "view",
      "type": "function"
    },
    {
      "inputs": [
        {
          "internalType": "uint256",
          "name": "",
          "type": "uint256"
        }
      ],
      "name": "faucets",
      "outputs": [
        {
          "internalType": "address",
          "name": "token",
          "type": "address"
        },
        {
          "internalType": "address",
          "name": "account",
          "type": "address"
        },
        {
          "internalType": "uint48",
          "name": "validAfter",
          "type": "uint48"
        },
        {
          "internalType": "uint48",
          "name": "validUntil",
          "type": "uint48"
        },
        {
          "internalType": "uint256",
          "name": "limitAmount",
          "type": "uint256"
        },
        {
          "internalType": "uint48",
          "name": "refreshInterval",
          "type": "uint48"
        },
        {
          "components": [
            {
              "internalType": "address[]",
              "name": "singletons",
              "type": "address[]"
            },
            {
              "internalType": "string[]",
              "name": "versions",
              "type": "string[]"
            },
            {
              "internalType": "bool",
              "name": "supported",
              "type": "bool"
            }
          ],
          "internalType": "struct SafeFaucetModule.AccountSupport",
          "name": "safe",
          "type": "tuple"
        },
        {
          "components": [
            {
              "internalType": "address[]",
              "name": "singletons",
              "type": "address[]"
            },
            {
              "internalType": "string[]",
              "name": "versions",
              "type": "string[]"
            },
            {
              "internalType": "bool",
              "name": "supported",
              "type": "bool"
            }
          ],
          "internalType": "struct SafeFaucetModule.AccountSupport",
          "name": "cbSW",
          "type": "tuple"
        },
        {
          "components": [
            {
              "internalType": "address[]",
              "name": "singletons",
              "type": "address[]"
            },
            {
              "internalType": "string[]",
              "name": "versions",
              "type": "string[]"
            },
            {
              "internalType": "bool",
              "name": "supported",
              "type": "bool"
            }
          ],
          "internalType": "struct SafeFaucetModule.AccountSupport",
          "name": "eoa",
          "type": "tuple"
        }
      ],
      "stateMutability": "view",
      "type": "function"
    },
    {
      "inputs": [
        {
          "internalType": "address",
          "name": "smartAccount",
          "type": "address"
        }
      ],
      "name": "isInitialized",
      "outputs": [
        {
          "internalType": "bool",
          "name": "",
          "type": "bool"
        }
      ],
      "stateMutability": "view",
      "type": "function"
    },
    {
      "inputs": [
        {
          "internalType": "uint256",
          "name": "typeID",
          "type": "uint256"
        }
      ],
      "name": "isModuleType",
      "outputs": [
        {
          "internalType": "bool",
          "name": "",
          "type": "bool"
        }
      ],
      "stateMutability": "pure",
      "type": "function"
    },
    {
      "inputs": [
        {
          "internalType": "address",
          "name": "",
          "type": "address"
        },
        {
          "internalType": "bytes32",
          "name": "hash",
          "type": "bytes32"
        },
        {
          "internalType": "bytes",
          "name": "data",
          "type": "bytes"
        }
      ],
      "name": "isValidSignatureWithSender",
      "outputs": [
        {
          "internalType": "bytes4",
          "name": "",
          "type": "bytes4"
        }
      ],
      "stateMutability": "view",
      "type": "function"
    },
    {
      "inputs": [],
      "name": "listFaucets",
      "outputs": [
        {
          "components": [
            {
              "internalType": "address",
              "name": "token",
              "type": "address"
            },
            {
              "internalType": "address",
              "name": "account",
              "type": "address"
            },
            {
              "internalType": "uint48",
              "name": "validAfter",
              "type": "uint48"
            },
            {
              "internalType": "uint48",
              "name": "validUntil",
              "type": "uint48"
            },
            {
              "internalType": "uint256",
              "name": "limitAmount",
              "type": "uint256"
            },
            {
              "internalType": "uint48",
              "name": "refreshInterval",
              "type": "uint48"
            },
            {
              "components": [
                {
                  "internalType": "address[]",
                  "name": "singletons",
                  "type": "address[]"
                },
                {
                  "internalType": "string[]",
                  "name": "versions",
                  "type": "string[]"
                },
                {
                  "internalType": "bool",
                  "name": "supported",
                  "type": "bool"
                }
              ],
              "internalType": "struct SafeFaucetModule.AccountSupport",
              "name": "safe",
              "type": "tuple"
            },
            {
              "components": [
                {
                  "internalType": "address[]",
                  "name": "singletons",
                  "type": "address[]"
                },
                {
                  "internalType": "string[]",
                  "name": "versions",
                  "type": "string[]"
                },
                {
                  "internalType": "bool",
                  "name": "supported",
                  "type": "bool"
                }
              ],
              "internalType": "struct SafeFaucetModule.AccountSupport",
              "name": "cbSW",
              "type": "tuple"
            },
            {
              "components": [
                {
                  "internalType": "address[]",
                  "name": "singletons",
                  "type": "address[]"
                },
                {
                  "internalType": "string[]",
                  "name": "versions",
                  "type": "string[]"
                },
                {
                  "internalType": "bool",
                  "name": "supported",
                  "type": "bool"
                }
              ],
              "internalType": "struct SafeFaucetModule.AccountSupport",
              "name": "eoa",
              "type": "tuple"
            }
          ],
          "internalType": "struct SafeFaucetModule.FaucetData[]",
          "name": "",
          "type": "tuple[]"
        }
      ],
      "stateMutability": "view",
      "type": "function"
    },
    {
      "inputs": [],
      "name": "name",
      "outputs": [
        {
          "internalType": "string",
          "name": "",
          "type": "string"
        }
      ],
      "stateMutability": "pure",
      "type": "function"
    },
    {
      "inputs": [
        {
          "internalType": "bytes",
          "name": "data",
          "type": "bytes"
        }
      ],
      "name": "onInstall",
      "outputs": [],
      "stateMutability": "nonpayable",
      "type": "function"
    },
    {
      "inputs": [
        {
          "internalType": "bytes",
          "name": "",
          "type": "bytes"
        }
      ],
      "name": "onUninstall",
      "outputs": [],
      "stateMutability": "nonpayable",
      "type": "function"
    },
    {
      "inputs": [
        {
          "components": [
            {
              "internalType": "address",
              "name": "sender",
              "type": "address"
            },
            {
              "internalType": "uint256",
              "name": "nonce",
              "type": "uint256"
            },
            {
              "internalType": "bytes",
              "name": "initCode",
              "type": "bytes"
            },
            {
              "internalType": "bytes",
              "name": "callData",
              "type": "bytes"
            },
            {
              "internalType": "bytes32",
              "name": "accountGasLimits",
              "type": "bytes32"
            },
            {
              "internalType": "uint256",
              "name": "preVerificationGas",
              "type": "uint256"
            },
            {
              "internalType": "bytes32",
              "name": "gasFees",
              "type": "bytes32"
            },
            {
              "internalType": "bytes",
              "name": "paymasterAndData",
              "type": "bytes"
            },
            {
              "internalType": "bytes",
              "name": "signature",
              "type": "bytes"
            }
          ],
          "internalType": "struct PackedUserOperation",
          "name": "userOp",
          "type": "tuple"
        },
        {
          "internalType": "bytes32",
          "name": "userOpHash",
          "type": "bytes32"
        }
      ],
      "name": "validateUserOp",
      "outputs": [
        {
          "internalType": "ERC7579ValidatorBase.ValidationData",
          "name": "",
          "type": "uint256"
        }
      ],
      "stateMutability": "view",
      "type": "function"
    },
    {
      "inputs": [],
      "name": "version",
      "outputs": [
        {
          "internalType": "string",
          "name": "",
          "type": "string"
        }
      ],
      "stateMutability": "pure",
      "type": "function"
    }
  ],
  "bytecode": "0x6080806040523461001657611ea0908161001c8239f35b600080fdfe608080604052600436101561001357600080fd5b60e0600035811c91826306fdde0314611223575081631a777d4f146111495781633233583b146110e257816344c028fe14610dc55781634784f7ed146103f657816354fd4d50146103945781636d61fe701461038f5781638a91b0e31461038f578163970032031461034b578163c534b7ef1461015957508063d60b347f14610134578063ecd05961146100fc5763f551e2ee146100b057600080fd5b346100f75760603660031901126100f7576100c96115e8565b5060443567ffffffffffffffff81116100f7576100ea903690600401611612565b5050602060405160008152f35b600080fd5b346100f75760203660031901126100f757602060043560018114908115610129575b506040519015158152f35b60029150148261011e565b346100f75760203660031901126100f75761014d6115e8565b50602060405160008152f35b346100f75760003660031901126100f7576000546101768161138c565b90610184604051928361136a565b80825260208083019182600080527f290decd9548b62a8d60345a988386fc84ba6bc95484008f6362f93160ef3e5636000915b8383106102a95750505050604051928184019082855251809152604084019160408260051b86010193926000965b8388106101f25786860387f35b90919293948380610298600193603f198b820301875289516102846102746101206001600160a01b03808551168652878501511687860152604084015165ffffffffffff80911660408701526060818187015116908701526080808601519087015260a09081860151169086015260c090808286015192870152850190611531565b888301518482038a860152611531565b916101008092015191818403910152611531565b9701930197019690939291936101e5565b600d856001926040999799516102be81611315565b6001600160a01b03808754168252858701549081168483015265ffffffffffff60a0918181841c16604085015260d01c60608401526002880154608084015260038801541690820152610313600487016113de565b60c0820152610324600787016113de565b8c820152610334600a87016113de565b6101008201528152019201920191909593956101b7565b346100f7576003196040368201126100f7576004359067ffffffffffffffff82116100f75761012091360301126100f757602060405165ffffffffffff60a01b8152f35b6117e4565b346100f75760003660031901126100f7576103f26040516103b48161134e565b600581527f302e302e3100000000000000000000000000000000000000000000000000000060208201526040519182916020835260208301906112a2565b0390f35b346100f7576003196020368201126100f7576004359067ffffffffffffffff82116100f7576101209082360301126100f7576040519161043583611315565b610441826004016115fe565b835261044f602483016115fe565b916020840192835261046360448201611640565b6040850190815261047660648301611640565b906060860191825260808601906084840135825261049660a48501611640565b9260a0880193845260c485013567ffffffffffffffff81116100f7576104c290600436918801016116a6565b9460c0890195865260e481013567ffffffffffffffff81116100f7576104ee90600436918401016116a6565b878a01526101048101359067ffffffffffffffff82116100f757600461051792369201016116a6565b610100890152338752600054600160401b8110156109445780600161053f92016000556112c7565b979097610daf5765ffffffffffff60a01b6001600160a01b037fffffffffffff000000000000000000000000000000000000000000000000000092818c51167fffffffffffffffffffffffff00000000000000000000000000000000000000008c5416178b555116935160a01b16915160d01b16911717600186015551600285015565ffffffffffff6003850191511665ffffffffffff198254161790556004830190519081519081519167ffffffffffffffff831161094457600160401b8311610944576020908254848455808510610d92575b500190600052602060002060005b838110610d7557505050506020810151805190600160401b8211610944576005850154826005870155808310610cfc575b5060200190600585016000526020600020916000905b828210610be15750505050604060068401910151151560ff8019835416911617905582015191825180519067ffffffffffffffff821161094457600160401b8211610944576020906007850154836007870155808410610bc1575b500160078401600052602060002060005b838110610ba45750505050602083015192835193600160401b8511610944576008840154856008860155808610610b2b575b5060200193600884016000526020600020946000905b828210610a1057856101008686604060098501910151151560ff80198354169116179055015190815180519067ffffffffffffffff821161094457600160401b821161094457602090600a84015483600a8601558084106109f0575b5001600a8301600052602060002060005b8381106109d35785856020820151805190600160401b821161094457600b83015482600b85015580831061095a575b5060200190600b83016000526020600020916000905b82821061081e57856040600c8701910151151560ff80198354169116179055600054600019810190811161080857602090604051908152f35b634e487b7160e01b600052601160045260246000fd5b805180519067ffffffffffffffff82116109445761083c86546113a4565b90601f9182811161090a575b50602091831160011461089a57926108808360019594602094879660009261088f575b50508160011b916000199060031b1c19161790565b87555b019401910190926107cf565b015190508c8061086b565b908660005260206000209160005b601f19851681106108f2575083602093600196938796938794601f198116106108d9575b505050811b018755610883565b015160001960f88460031b161c191690558b80806108cc565b919260206001819286850151815501940192016108a8565b610935908860005260206000208480870160051c8201926020881061093b575b0160051c0190611817565b89610848565b9250819261092a565b634e487b7160e01b600052604160045260246000fd5b600b84016000526020600020908382015b818301811061097b5750506107b9565b80610988600192546113a4565b80610995575b500161096b565b601f9081811184146109ae575050600081555b8861098e565b6109ca60009284845260208420920160051c8201858301611817565b818355556109a8565b60019060206001600160a01b03855116940193818401550161078a565b610a0a90600a860160005284846000209182019101611817565b85610779565b805180519067ffffffffffffffff821161094457610a2e89546113a4565b90601f91828111610afb575b506020918311600114610a8b5792610a7183600195946020948796600092610a805750508160011b916000199060031b1c19161790565b8a555b0197019101909561071d565b015190508d8061086b565b908960005260206000209160005b601f1985168110610ae3575083602093600196938796938794601f19811610610aca575b505050811b018a55610a74565b015160001960f88460031b161c191690558c8080610abd565b91926020600181928685015181550194019201610a99565b610b25908b60005260206000208480870160051c8201926020881061093b570160051c0190611817565b8a610a3a565b600885016000526020600020908682015b8183018110610b4c575050610707565b80610b59600192546113a4565b80610b66575b5001610b3c565b601f908181118414610b7f575050600081555b89610b5f565b610b9b60009284845260208420920160051c8201858301611817565b81835555610b79565b60019060206001600160a01b0385511694019381840155016106d5565b610bdb906007870160005284846000209182019101611817565b866106c4565b805180519067ffffffffffffffff821161094457610bff86546113a4565b90601f91828111610ccc575b506020918311600114610c5c5792610c4283600195946020948796600092610c515750508160011b916000199060031b1c19161790565b87555b01940191019092610669565b015190508e8061086b565b908660005260206000209160005b601f1985168110610cb4575083602093600196938796938794601f19811610610c9b575b505050811b018755610c45565b015160001960f88460031b161c191690558d8080610c8e565b91926020600181928685015181550194019201610c6a565b610cf6908860005260206000208480870160051c8201926020881061093b570160051c0190611817565b8b610c0b565b600586016000526020600020908382015b8183018110610d1d575050610653565b80610d2a600192546113a4565b80610d37575b5001610d0d565b601f908181118414610d50575050600081555b8a610d30565b610d6c60009284845260208420920160051c8201858301611817565b81835555610d4a565b60019060206001600160a01b038551169401938184015501610622565b610da9908460005285846000209182019101611817565b88610614565b634e487b7160e01b600052600060045260246000fd5b346100f75760803660031901126100f7576024356004356001600160a01b03821682036100f7576044359067ffffffffffffffff906064358281116100f757610e12903690600401611612565b939091811580156110db57865b610e32610e2d36898861166f565b61182e565b9083156110d357925b156110cb57925b610e4c838261189c565b1561108757610e5a93611d3b565b1561105d57610e70600092610f3c95369161166f565b94604051906020968783019285845285602182015285602282015285602682015285602a820152888152610ea38161134e565b51925192888110611048575b50610efb916054916040519586926bffffffffffffffffffffffff199060601b168b8401526034830152610eeb815180928c868601910161127f565b810103603481018552018361136a565b60405194859283927fd691c96400000000000000000000000000000000000000000000000000000000845260048401526040602484015260448301906112a2565b038183335af191821561103c57600092610f88575b5050805115610f7257810151906103f26040519282849384528301906112a2565b634e487b7160e01b600052603260045260246000fd5b9091503d806000833e610f9b818361136a565b81019083818303126100f7578051908382116100f757019080601f830112156100f7578151610fc98161138c565b93610fd7604051958661136a565b818552858086019260051b850101938385116100f757868101925b858410611006575050505050508280610f51565b83518381116100f757820185603f820112156100f75788916110318783604086809601519101611865565b815201930192610ff2565b6040513d6000823e3d90fd5b851990890360031b1b90921691610efb610eaf565b60046040517facfdb444000000000000000000000000000000000000000000000000000000008152fd5b606460405162461bcd60e51b815260206004820152601660248201527f496e76616c6964207461726765742061646472657373000000000000000000006044820152fd5b508392610e42565b508892610e3b565b6000610e1f565b346100f75760403660031901126100f7576001600160a01b036111036115e8565b16600052600160205260406000206024356000526020526060604060002080549065ffffffffffff60026001830154920154169060405192835260208301526040820152f35b346100f75760203660031901126100f757600435906000548210156100f7576103f26111766020936112c7565b506112146001600160a01b03938483541692611207600182015465ffffffffffff95600284015487600386015416906111b1600487016113de565b936111ca600a6111c360078a016113de565b98016113de565b99604051809e819e61012097835284169101528160a01c1660408d015260d01c60608c015260808b015260a08a01528060c08a0152880190611531565b9186830390870152611531565b90838203610100850152611531565b346100f75760003660031901126100f757806112416103f29261134e565b601181527f5370656e644c696d697453657373696f6e00000000000000000000000000000060208201526040519182916020835260208301906112a2565b60005b8381106112925750506000910152565b8181015183820152602001611282565b906020916112bb8151809281855285808601910161127f565b601f01601f1916010190565b90600091825481101561130157600d90838052027f290decd9548b62a8d60345a988386fc84ba6bc95484008f6362f93160ef3e563019190565b602483634e487b7160e01b81526032600452fd5b610120810190811067ffffffffffffffff82111761094457604052565b6060810190811067ffffffffffffffff82111761094457604052565b6040810190811067ffffffffffffffff82111761094457604052565b90601f8019910116810190811067ffffffffffffffff82111761094457604052565b67ffffffffffffffff81116109445760051b60200190565b90600182811c921680156113d4575b60208310146113be57565b634e487b7160e01b600052602260045260246000fd5b91607f16916113b3565b90604091604051906113ef82611332565b8193604051808354908183526020809301918160009387855285852092855b87828210611512575050506114259250038261136a565b855260018085018054906114388261138c565b95611446604051978861136a565b82875290845284842084918688015b848410611479575050505050505060409260ff926002928601520154161515910152565b85888351928993865461148b816113a4565b808352908581169081156114f657506001146114be575b506114b0818596038261136a565b815201930193019291611455565b878c52838c208c96505b8187106114df5750509384018201936114b06114a2565b805483880186015293909501948a948d94016114c8565b60ff19168584015250151560051b8101830194506114b06114a2565b85546001600160a01b031684526001958601958795509301920161140e565b906060810191805192606083528351809152608083019060208095019060005b868282106115cb579250505082015193838203818501528451908183528083019281808460051b8301019701936000915b84831061159d57505050505050604080910151151591015290565b90919293949784806115bb600193601f198682030187528c516112a2565b9a01930193019194939290611582565b83516001600160a01b031685529384019390920191600101611551565b600435906001600160a01b03821682036100f757565b35906001600160a01b03821682036100f757565b9181601f840112156100f75782359167ffffffffffffffff83116100f757602083818601950101116100f757565b359065ffffffffffff821682036100f757565b67ffffffffffffffff811161094457601f01601f191660200190565b92919261167b82611653565b91611689604051938461136a565b8294818452818301116100f7578281602093846000960137010152565b90916060828403126100f75760408051906116c082611332565b8193803567ffffffffffffffff908181116100f75782019680601f890112156100f75760209780356116f18161138c565b916116fe8751938461136a565b8183528a8084019260051b820101918483116100f7578b809201905b8382106117cd57505050508552878301358281116100f75783019080601f830112156100f757813561174b8161138c565b936117588751958661136a565b8185528a8086019260051b850101938385116100f7578b8101925b85841061179857505050505050839495968394015201359182151583036100f7570152565b83358381116100f757820185603f820112156100f7578d916117c287838d8680960135910161166f565b815201930192611773565b8280916117d9846115fe565b81520191019061171a565b346100f75760203660031901126100f75760043567ffffffffffffffff81116100f757611815903690600401611612565b005b818110611822575050565b60008155600101611817565b906044825110611845576044602483015192015190565b600091508190565b8054821015610f725760005260206000200190600090565b9092919261187281611653565b91611880604051938461136a565b8294828452828201116100f757602061189a93019061127f565b565b91600060ff600c6118ac866112c7565b50015416611d32576001600160a01b03809316936040928351957f5c60da1b00000000000000000000000000000000000000000000000000000000875260209660049688828981865afa869281611cf6575b50611bd157505090600086928651938480927fffa1ad740000000000000000000000000000000000000000000000000000000082525afa60009281611b74575b506119ab576084868887519162461bcd60e51b8352820152602f60248201527f4e6f7420612076616c69642053616665204163636f756e74206f7220436f696e60448201527f62617365536d61727457616c6c657400000000000000000000000000000000006064820152fd5b60ff60066119bb859698956112c7565b5001541615611b325760005b6119d0856112c7565b50600580910154821015611ade57611a1f8288518b810190611a0b8d82816119fe8c8781519384920161127f565b810103808452018261136a565b51902092611a18896112c7565b500161184d565b509087518a8101908b816000865496611a37886113a4565b906001988981169081600014611ac05750600114611a80575b5050611a65925003601f19810183528261136a565b51902014611a77575b506001016119c7565b96506001611a6e565b90915060005282600020876000915b838310611aa95750505091611a65928201018e9238611a50565b805487840187015286945091850191899101611a8f565b915050611a6594925060ff19168652801515028201018e9238611a50565b505095925050918315611af15750505090565b606493508190519262461bcd60e51b845283015260248201527f4e6f7420612076616c69642053616665204163636f756e742076657273696f6e6044820152fd5b6064838887519162461bcd60e51b8352820152601260248201527f53616665206e6f7420737570706f7274656400000000000000000000000000006044820152fd5b90923d8082843e611b85818461136a565b8201918981840312611bcd5780519067ffffffffffffffff8211611bc957019082601f83011215611bc657508051611bbf92918a01611865565b913861193e565b80fd5b8280fd5b5080fd5b94915094969560ff6009611be4866112c7565b5001541615611c8e57815b611bf8856112c7565b50600780910154821015611c3757611c15828892611a18896112c7565b90549060031b1c1686881614611c2e575b600101611bef565b60019250611c26565b505094509492509490508315611c4d5750505090565b60649350519162461bcd60e51b8352820152601f60248201527f4e6f7420612076616c696420436f696e62617365536d61727457616c6c6574006044820152fd5b6084908789519162461bcd60e51b8352820152602160248201527f436f696e62617365536d61727457616c6c6574206e6f7420737570706f72746560448201527f64000000000000000000000000000000000000000000000000000000000000006064820152fd5b9092508981813d8311611d2b575b611d0e818361136a565b81010312611d2757518181168103611d275791386118fe565b8680fd5b503d611d04565b50915050600190565b9290611d46816112c7565b50926001600160a01b039182600094168452600160205260408420908452602052604083209180855416911603611e635765ffffffffffff92836003820154169360028201549260028101916001835492019660018854950154828160a01c164210908115611e56575b50611e4a578015908115611e1e575b5015611df1575050508401938410908115611de7575b50611de1575055600190565b91505090565b9050831138611dd5565b94919680949196935011611e1557505542169065ffffffffffff1916179055600190565b94505050505090565b905081831601818111611e3657814291161138611dbf565b602487634e487b7160e01b81526011600452fd5b50505050505091505090565b905060d01c421138611db0565b509150509056fea2646970667358221220eaa11b85578377b836cc78885b1dfbd20be00271d1fc039622a92c1f04ba2be164736f6c63430008170033",
  "linkReferences": {},
  "deployedLinkReferences": {}
}